:0A15070000007F147E70DEFEDFFCA2
:0115110022B7
:0413CC00AD07AC06B7
:1013D000E4FBFAC3EB9DEA9C500A1215070BBB0015
:0413E000010A80EF8F
:0113E40022E6
:09151D00D2B020B00375C76022B2
:10134100E4F5D8F5E9F5F975D90875EAFF75FAFFFD
:0F13510075EBFF75FBFF75DA4275DB42D2DE22CA
:0D14D400438905E4F58AF58CD28CD2A9225B
:10141700538EBF53890F438910758BE5758DBEC2F7
:061427008FD28ED2AB2231
:10142D0053877F759850438E04759CBF438E01433F
:03143D008E1022EC
:1014400043A210538EF7759A50438E04759CBF4388
:031450008E1022D9
:0D14B8003098FDC298900009E599F0E0FF22
:0114C5002204
:10147900E59A30E0FB539AFE900008E59BF0E0FF07
:011489002240
:080003008F993099FDC299228A
:0B1512008F9BE59A30E1FB539AFD220D
:0C14E1007F04AE071FEE6004000080F6E0
:0114ED0022DC
:0F149A00D280D2811214E1C2801214E1C28122E9
:0C14FB00C280D2811214E1D2800214E100
:0E14C600A2009280D2811214E1C2810214E1D0
:0D14EE00D2811214E1A280C2811214E12209
:02137D00AD07BA
:10137F00E4FCED25E0FD9280D2811214E1C28112CE
:09138F0014E10CBC08EC0214EEA0
:10128800E4FDD280FBFAED25E0FDD2811214E1A243
:1012980080E4334205C2811214E10BBB00010AEB62
:0712A80064084A70E1AF0584
:0112AF00221C
:1013E500AB05AA0712149A7FD012137DAF02121310
:0913F5007DAF0312137D0214FB0D
:0212B000AB078A
:1012B20012149A7FD012137DAF0312137D12149A67
:1012C2007FD112137D121288AD07D2001214C612FA
:0412D20014FBAF0555
:0112D60022F5
:09152600C2C8C2C9C2CAC2CB226C
:1012FC00E4FD7F6B1213E57D077F191213E57D0664
:10130C007F1A1213E57D187F1B1213E57D017F1CDC
:03131C000213E5D4
:1005C60000E010080810E000000F102020100F00B7
:1005D600001010F8000000000020203F202000003E
:1005E6000070080808887000003028242221300096
:1005F60000300888884830000018202020110E009E
:100606000000C02010F8000000070424243F240046
:1006160000F80888880808000019212020110E001B
:1006260000E0108888180000000F112020110E002D
:1006360000380808C83808000000003F0000000025
:100646000070880808887000001C222121221C00E6
:1006560000E010080810E0000000312222110F000F
:1006660000008080808000000019242222223F2082
:1006760008F8008080000000003F112020110E00C5
:100686000000008080800000000E11202020110054
:10069600000000808088F800000E112020103F2006
:1006A6000000808080800000001F2222222213008A
:1006B600008080F0888888180020203F20200000D5
:1006C6000000808080808000006B9494949360008A
:1006D60008F8008080800000203F210000203F2095
:1006E60000809898000000000020203F2020000095
:1006F600000000809898000000C08080807F000085
:1007060008F8000080808000203F24022D30200061
:10071600000808F8000000000020203F202000000C
:100726008080808080808000203F20003F20003F26
:100736008080008080800000203F210000203F2034
:100746000000808080800000001F202020201F00E5
:10075600808000808000000080FFA12020110E0014
:100766000000008080808000000E112020A0FF8005
:10077600808080008080800020203F2120000100B2
:100786000000808080808000003324242424190007
:10079600008080E0808000000000001F2020000014
:1007A6008080000000808000001F202020103F2055
:1007B600808080000080808000010E3008060100E5
:1007C60080800080008080800F300C030C300F008A
:1007D60000808000808080000020312E0E312000B5
:1007E600808080000080808080818E7018060100E5
:1007F60000808080808080000021302C2221300003
:1008060000000000000000000001010101010101DB
:1008160040404040404040000404040404040400F6
:10082600000C30C000000000000000010638C000C7
:1008360000000000000000000000000000000000B2
:10084600000000FE020202000000007F404040005F
:1008560000020202FE000000004040407F0000004F
:100866000000008000000000000080600000000022
:1008760010160E000000000000000000000000003E
:10088600000000000000000080B0700000000000C2
:1008960000000000000000000030300000000000F2
:1008A60000000000806018040060180601000000C7
:1008B600000000C0C0000000000000303000000052
:1008C600000000C0C0000000000000303000000042
:1008D600000010107C10100000000808080808002E
:1008E600000010107C101000000000000000000046
:1008F60000000000000000000000080808080800CA
:100906000050901010F0101010D0000004040504E0
:10091600047F040405040400209048E058D070C009
:1009260090909000017F0057351F3557407F00009B
:100936002020A06038A020202020200010131212B2
:10094600127F12121212100008F4535252F25A5623
:1009560050F000000807010101070101090F00001E
:1009660000FE0A8ABEAAABAABE8A0A0008070008C9
:10097600090A04040A0908000000303000000000DB
:10098600000000000000030300000000000000005B
:0E14A900E4FFFE0FBF00010EBE01F8BFF4F518
:0114B7002212
:1011E60075F010EBA42CF582E435F0F583E5822446
:0E11F600C6F582E5833405F583E493FF7D01A1
:10120400C2A6ED24FF92A5E4FEEF30E704D2A48049
:1012140002C2A4EF25E0FFC2A3D2A30EBE08EAD205
:05122400A5D2A6D2A432
:0112290022A2
:10136000C2A71214A9D2A7E4FD7F211212047FD0D4
:0D1370001212047F201212047F0C021204DE
:0713FE00A907AA05E9A4FFFD
:10140500AC07ED4440FFE4FD121204EC4480FF02FA
:021415001204BF
:10139800E4FDFF121405E4FCE4FB7D01E4FF1212F6
:0913A800040BBB54F50CBC06EF6C
:0113B1002219
:1012D70075F0081213FEE4FC1211E60CBC08F9E9DC
:1012E70075F008A4FFEA04FD1214057C081211E644
:0412F7000CBC10F922
:0112FB0022D0
:1011490075F0061213FEE4FC75F018EBA42CF58279
:10115900E435F0F583E5822406F582E58334091246
:1011690011FD0CBC0CE2E975F006A4FFEA04FD12BE
:1011790014057C0C75F018EBA42CF582E435F0F518
:1011890083E5822406F582E58334091211FD0CBC3E
:0211990018E25A
:01119B002231
:1013B200000000000000000000000000000000002B
:0A13C2000000000000000000000021
:101453001008000000000000000000000000000071
:02146300000087
:0810F0008B188A19891A8D1B67
:1010F80074FFF51CF51DE4FDEDC3951B503EAB18C0
:10110800AA19A91A8D827583001204EF621DE4FCE6
:10111800E51D30E015E51CC313FEE51D13FFEE6465
:10112800A0F51CEF6401F51D800BE51CC313F51C2D
:10113800E51D13F51D0CBC08D70D80BCAE1CAF1DFA
:011148002284
:100E0200785B7C007D007BFF7A1379B27E007F08DD
:100E12001204C978637C007D007BFF7A1379BA7E65
:100E2200007F081204C9786B7C007D007BFF7A1377
:100E320079C27E007F0A1204C9E4F576F577F5756A
:100E4200E57525E025E02408F8120579120378E516
:100E52007525E0245BF8A60608A607E57525E024BB
:100E62005BF8E6FE08E6FFE57525E02463F8A606D2
:100E720008A6070575E575B404C6E4F575E575259C
:100E8200E02463F808E6FFE57525E0246BF8A60781
:100E9200E57525E02463F8E6FEEEFFE57525E0241E
:100EA2006CF8A6070575E575B404D27B007A007963
:100EB2006B7D081210F08E768F778F73E576F5745E
:100EC200E4F575746B2575F8E6FF1200030575E508
:060ED20075C3940A40ED17
:010ED80022F7
:03001B0002119C33
:10119C00C0E0C0F0C083C082C0D075D000C000C019
:1011AC0001C002C003C004C005C006C007758BE5B2
:1011BC00758DBE121466120D1C120996120B7FD07F
:1011CC0007D006D005D004D003D002D001D000D077
:0A11DC00D0D082D083D0F0D0E032F2
:03000B0002000EE2
:05000E000536B2CA3204
:0300130002122AAC
:10122A00C0E0C0D075D000C000C001C002E4FAF925
:10123A00F8E5542401F554EA3553F553E93552F5E6
:10124A0052E83551F551B2C8D002D001D000D0D001
:03125A00D0E032AF
:10125D00C2AF5397F81214D412141712134112146B
:10126D002D1200161212FC120FFE7FF47E011213C6
:0B127D00CCD2AF12151D12108180F8BA
:10148A00414000003F666666410000003D4CCCCDFD
:05001600D2AAD28A22EB
:100FFE00E4F559F55AF537F538F54CF54BF54AF554
:10100E0049F554F553F552F551F548F547F546F5C2
:10101E0045F535F534F533F532F53CF53BF53AF556
:10102E0039F540F53FF53EF53DF528F527F526F562
:10103E0025F531F530F52FF52EF550F54FF54EF52A
:10104E004DF544F543F542F541F524F523F522F52A
:10105E0021F52DF52CF52BF52A90000012059500A3
:10106E0000000090000412059500000000E4F52930
:03107E00F5362222
:02131F008F78C5
:101321001212B07579008F7AE57804FF1212B0AD10
:0F13310007E57AFEED3395E0FCE42DFFEE3CFE80
:01134000228A
:101466007F3D12131F8E378F387F4312131F8E59FD
:031476008F5A2268
:100F7300C3EE64809480500BC290D291EFF404F5D9
:100F8300788006D290C2918F78C3EC6480948050AD
:100F93000BD295C296EDF404F5798006C295D296EC
:100FA3008D79E578700375FAFFE579700375FBFFBA
:100FB300C374FF9578F578C374FF9579F579AF78A5
:100FC3008FEA8FFAAF798FEB8FFBE4FFFE7D8C7C8A
:100FD30042AB3CAA3BA93AA8391202BC60025014A6
:100FE300E4FFFE7D8C7CC2AB3CAA3BA93AA8391234
:0A0FF30002BC500675FAFF75FBFF03
:010FFD0022D1
:100B7F00AB50AA4FA94EA84DAF44AE43AD42AC41C6
:100B8F00120021900000E0F8A3E0F9A3E0FAA3E03F
:100B9F00FB1200258F2D8E2C8D2B8C2AAB50AA4F3C
:100BAF00A94EA84DAF44AE43AD42AC4112002190C7
:100BBF000000E0F8A3E0F9A3E0FAA3E0FB120021A4
:100BCF008F248E238D228C21E4FFFEFDFCAB2DAAFA
:100BDF002CA92BA82A1202BC60144012AF2DAE2CE8
:100BEF00AD2BAC2AE4FBFAF9F81200258022E4FFC2
:100BFF00FEFDFCAB2DAA2CA92BA82A1202BC501863
:100C0F00AF2DAE2CAD2BAC2AE4FBFAF9F812002174
:100C1F008F2D8E2C8D2B8C2AE4FFFEFDFCAB24AA8E
:100C2F0023A922A8211202BC60144012AF24AE23C4
:100C3F00AD22AC21E4FBFAF9F81200258022E4FF83
:100C4F00FEFDFCAB24AA23A922A8211202BC501836
:100C5F00AF24AE23AD22AC21E4FBFAF9F812002148
:100C6F008F248E238D228C21E4FFFE7D7F7C43AB6E
:100C7F002DAA2CA92BA82A1202BC600D400BE4F55B
:100C8F002DF52C752B7F752A43E4FFFE7D7F7CC3EA
:100C9F00AB2DAA2CA92BA82A1202BC500BE4F52DC0
:100CAF00F52C752B7F752AC3E4FFFE7D7F7C43AB4C
:100CBF0024AA23A922A8211202BC600D400BE4F53F
:100CCF0024F52375227F752143E4FFFE7D7F7CC3CE
:100CDF00AB24AA23A922A8211202BC500BE4F524AD
:100CEF00F52375227F7521C3AF2DAE2CAD2BAC2A0A
:100CFF00120378C006C007AF24AE23AD22AC211279
:0D0D0F000378AD07AC06D007D006020F73C5
:10099600AF36E4FCFDFEFBFA7901F812051CA8044B
:1009A600A905AA06AB07AF8CEFFEE4FCFD2BFBEA1C
:1009B6003EFAED39F9EC38F8AF8AE4FEEB2FF54C48
:1009C600EE3AF54BED39F54AEC38F549E4F536F5EE
:1009D6008AF58CAF2DAE2CAD2BAC2A120378D3EF53
:1009E6009400EE648094804003D38001C34013AF2B
:1009F60054AE53AD52AC5112056B8F548E538D527B
:100A06008C51AF24AE23AD22AC21120378D3EF94E0
:100A160000EE648094804003D38001C34013AF4C42
:100A2600AE4BAD4AAC4912056B8F4C8E4B8D4A8C42
:100A360049E554254CFFE553354BFEE552354AFD55
:100A4600E5513549FC12033AE4FBFAF9783F120105
:100A5600168F488E478D468C45E4F54CF54BF54A86
:100A6600F549F554F553F552F5517FCD7ECC7DCC45
:100A76007C3DAB48AA47A946A845120116C004C04A
:100A860005C006C0077466FFFEFD7C3FAB58AA573B
:100A9600A956A855120116D003D002D001D00012D3
:100AA60000258F488E478D468C458F588E578D561C
:100AB6008C557BF67AC07999783E1201168F488E4E
:100AC600478D468C45AF35AE34AD33AC32AB48AA14
:100AD60047A946A8451200258F358E348D338C32B2
:100AE600900004E0F8A3E0F9A3E0FAA3E0FB12000B
:100AF600258F358E348D338C32120378D3EF94F6EE
:100B0600EE64809489400C75350075346075331F2A
:100B1600753245AF35AE34AD33AC32120378C3EF20
:100B2600940AEE64809476500C75350075346075C1
:100B3600331F7532C5AF35AE34AD33AC321203292F
:100B4600901496120585120116C004C005C006C091
:100B560007AF48AE47AD46AC451203299014921232
:100B66000585120116D003D002D001D0001200254F
:090B76008F508E4F8D4E8C4D22E4
:100D1C00E53824E8FDE5373403FC12033FE4FBFA25
:100D2C0079B4783B1201168F288E278D268C25AC32
:100D3C0059AD5AEC12033F7BEC7A5179B8783D12DD
:100D4C0001168F408E3F8D3E8C3D85313C85303B6E
:100D5C00852F3A852E39AB3CAA3BA93AA839AF2846
:100D6C00AE27AD26AC25120021E4FBFAF9783F1230
:100D7C00021F8F7B8E7A8D798C78AB31AA30A92F9C
:100D8C00A82EC000C001C002C003AB40AA3FA93EC0
:100D9C00A83D120025E4FBFA79C8784212021FD054
:100DAC0003D002D001D0001200258F318E308D2F50
:100DBC008C2EAF40AE3FAD3EAC3D12032990148E4D
:100DCC00120585120116C004C005C006C007AF3C51
:100DDC00AE3BAD3AAC3912032990148A1205851238
:100DEC000116D003D002D001D0001200258F448E02
:050DFC00438D428C4113
:010E010022CE
:101081001214B8EF14B40800504E90109975F00383
:10109100A4C58325F0C583730210B30210B10210F9
:1010A100B50210B70210B90210BE0210C30210B788
:1010B10080068009800C801590000480089000044F
:1010C100800E90000012059540E000002290000083
:1010D100120595C1F0000022900004120595000050
:0E10E100000090000012059500000000B2CA49
:0110EF0022DE
:03000000020ED914
:100ED900787FE4F6D8FD9000007F007E04E4F0A35B
:0A0EE900DFFCDEFA75817B020F2E9C
:10001E000203E4E86480F8E933E83360110460F029
:10002E00ED33EC337009E8FCE9FDEAFEEBFF220448
:10003E0060DED3EB9FEA9EE99DE8C2E78CF0C2F743
:10004E0095F0400CE8CCF8E9CDF9EACEFAEBCFFB0F
:10005E001203AF85D0F05804700320D5B3E80470B6
:10006E00075002B2D50203EE92D5EC0460F7E4CC51
:10007E00C0E0C398F8603B94186008400DD0E0FBD8
:10008E000203C6E4FBFAC9FC8028E830E406E4C9A2
:10009E00FBE4CAFCE830E305E4C9CACBFCE854072C
:1000AE006010F8C3E913F9EA13FAEB13FBEC13FC37
:1000BE00D8F130F52FC3E49CFCEF9BFFEE9AFEEDDA
:1000CE0099FDD0E0FBEF4E4D4C701222DB03020384
:1000DE00EBEC2CFCEF33FFEE33FEED33FDED30E7B2
:1000EE00EB0203C6EF2BFFEE3AFEED39FDD0E0FB3F
:1000FE0050130BBB00030203EEED13FDEE13FEEFE8
:08010E0013FFEC13FC0203C611
:10011600EC4D6011E8497017ED33EC3304600DE4E3
:10012600FCFFFEFD22E933E8330470F80203E41213
:1001360003AF58046009E4CC248150062850090214
:1001460003EE2840030203EBC0E0EB4A7044B9809B
:1001560006D0E0FB0203DAEF4E701CBD8008EBFF11
:10016600EAFEE9FD80EBE98DF0A4FEE5F00201FF71
:10017600E9CDF9EAFEEBFFEF89F0A4FCE5F0CE89C4
:10018600F0A42EFFE435F0CD89F0A42DFEE435F081
:100196008067EF4E7005BD80D780C3EF8BF0A4ACAF
:1001A600F0EE8BF0A42CFCE435F0F8EF8AF0A42CEA
:1001B600E5F038FCE433CB8DF0A42CFCE5F03BF8FD
:1001C600EE8AF0A42CFCE5F038F8E433CF89F0A4ED
:1001D6002CFCE5F038CF3400CE89F0A42FFFE5F0F3
:1001E6003EFEE433C98DF0A42EFEE5F039CD8AF04B
:1001F600A42FFFE5F03EFEE43DFD33D0E0FB5007C3
:100206000BBB000F0203EEEC2CFCEF33FFEE33FECC
:06021600ED33FD0203C6FA
:10021C000203EEEC5D046005E8590470030203E48C
:10022C001203AF580460F6EC4860F2EC7004FDFE6B
:10023C00FF22C860DB2481C85009C39860025006B5
:10024C000203EB9850CAF582E9294B4A7005AB8240
:10025C000203DA75F0007C1A7880C3EF9BEE9AEDFE
:10026C0099400DC3EF9BFFEE9AFEED99FDE842F02D
:10027C00DC23ACF0D0E0FFD0E0FED0E0FDAB822080
:10028C00E7101BEB60BAEC2CFCEF33FFEE33FEED0A
:10029C0033FD0203C6E803F830E705C0F075F00043
:1002AC00EF2FFFEE33FEED33FD40B830E7C280AAEE
:1002BC0074F8CC6480CCC86480C8F582046043C3F5
:1002CC00EB9FF5F0EA9E42F0E99D42F0E89C45F088
:1002DC0060305018E5825FFFE582F42B5582FB50AD
:1002EC00210ABA001D09B90019088016E5825BFBCA
:1002FC00E582F42F5582FF50090EBE00050DBD009E
:10030C00010CC3EB9FF5F0EA9E42F0E99D42F0E848
:0D031C009C45F06007CC4820E701B3EC22BF
:10032900ED33EC33600A047003BD8004ECB2E7FCE2
:0103390022A1
:10033A0075F020800E75F010800575F0087D007E3E
:10034A00007F003392D530D50312056BEC33401091
:10035A00EF33FFEE33FEED33FDEC33FCD5F0ED2247
:0E036A00E5F0247EA2D513CC92E7CDCEFF2283
:10037800EDD2E7CD33EC3392D524814006E4FFFE7D
:10038800FDFC22FCE4CFCECDCC24E0501174FF80DC
:10039800EDC3CC13CCCD13CDCE13CECF13CF047079
:0703A800F030D5DE02056B09
:1003AF00E9D2E7C933E833F892D5EDD2E7CD33EC94
:0703BF0033FC5002B2D5220D
:1003C600EC30E7100FBF000C0EBE00080DBD000498
:1003D6000BEB6014A2D5EB13FCED92E7FD2274FF44
:1003E600FCFDFEFF22E480F8A2D574FF13FC7D809D
:0303F600E480EFB1
:100EF30002125DE493A3F8E493A34003F68001F2A6
:100F030008DFF48029E493A3F85407240CC8C333FF
:100F1300C4540F4420C8834004F456800146F6DFCE
:100F2300E4800B0102040810204080901453E47EF7
:100F3300019360BCA3FF543F30E509541FFEE493C3
:100F4300A360010ECF54C025E060A840B8E493A38A
:100F5300FAE493A3F8E493A3C8C582C8CAC583CAB5
:100F6300F0A3C8C582C8CAC583CADFE9DEE780BE6D
:011465000086
:1003F900E709F608DFFA8046E709F208DFFA803EE6
:1004090088828C83E709F0A3DFFA8032E309F608D2
:10041900DFFA8078E309F208DFFA807088828C833A
:10042900E309F0A3DFFA806489828A83E0A3F608EE
:10043900DFFA805889828A83E0A3F208DFFA804CC8
:1004490080D280FA80C680D4806980F2803380109F
:1004590080A680EA809A80A880DA80E280CA803308
:1004690089828A83ECFAE493A3C8C582C8CCC58380
:10047900CCF0A3C8C582C8CCC583CCDFE9DEE78050
:100489000D89828A83E493A3F608DFF9ECFAA9F0CF
:10049900EDFB2289828A83ECFAE0A3C8C582C8CC25
:1004A900C583CCF0A3C8C582C8CCC583CCDFEADE3E
:1004B900E880DB89828A83E493A3F208DFF980CCA0
:1004C90088F0EF60010E4E60C388F0ED2402B40499
:1004D9000050B9F582EB2402B4040050AF23234540
:0604E90082239004497318
:1004EF00BB010CE58229F582E5833AF583E02250C2
:1004FF0006E92582F8E622BBFE06E92582F8E2220C
:0D050F00E58229F582E5833AF583E4932225
:10051C00E88FF0A4CC8BF0A42CFCE98EF0A42CFC7E
:10052C008AF0EDA42CFCEA8EF0A4CDA8F08BF0A4FC
:10053C002DCC3825F0FDE98FF0A42CCD35F0FCEB5B
:10054C008EF0A4FEA9F0EB8FF0A4CFC5F02ECD3920
:0F055C00FEE43CFCEAA42DCE35F0FDE43CFC228D
:0E056B00C3E49FFFE49EFEE49DFDE49CFC22A1
:0C057900E6FC08E6FD08E6FE08E6FF22AE
:10058500E493F8740193F9740293FA740393FB22CC
:10059500A8828583F0D083D0821205AC1205AC12F7
:1005A50005AC1205ACE473E493A3C583C5F0C5831C
:1005B500C8C582C8F0A3C583C5F0C583C8C582C8B0
:0105C5002213
:00000001FF
